:02000004080AE8
:1000000000000A084C820A080000060006000501EC
:080010000402FE0800000000DC
:040018004C7C0A080A
:10001C0009480A4908B5884205D0094A824202D0EB
:10002C00121A07F01BFC0748074A0021121A07F0A6
:10003C003DFC064808BD00BF0000002094810A0862
:10004C009000002090000020BD1B0020BD1B002054
:10005C0070B506F0DBFA0025054E064CA41BA4086F
:10006C00A54200D170BD56F8043B98470135F7E71F
:10007C0068810A088C810A0800F022BF08B500F0DC
:10008C00C9FCBDE8084006F079BA04F081BA04F066
:10009C007FBA04F085BA000000210C2008B5024A92
:1000AC0004F0BAF9FEE700BF31410A080078B0FA53
:1000BC0080F04009704701230370704708B54FF07A
:1000CC000050012100F03EF9BDE808404FF000500F
:1000DC00002100F037B9000040F6FE7330B5084D32
:1000EC0083402A6822EA030491E80C001A438B68C7
:1000FC001343CA681343834023432B6030BD00BFB6
:10010C00007400400023036043608360C360704749
:10011C00064A012319B1116883400B4303E01168AF
:10012C00834021EA03031360704700BF0074004052
:10013C00064A4FF4805319B1116883400B4303E016
:10014C001168834021EA0303136070470074004078
:10015C00036823F0010303600023036043608360A2
:10016C00C360036121234361294B984217D0294B6B
:10017C0098421BD0284B984220D0284B984225D02F
:10018C00274B98422AD0274B98422ED0264B984288
:10019C0032D0264B984236D0254B984203D13D2283
:1001AC0043F8082C7047234B984204D14FF47462E7
:1001BC0043F8202C7047204B984204D14FF4741212
:1001CC0043F8382C70471D4B984204D14FF07462A1
:1001DC0043F8502C70471A4B984203D1194A43F8F4
:1001EC00642C7047184B984203D1184A43F87C2C66
:1001FC007047174B984203D1164A43F8942C70471A
:10020C00154B984203D14FF03D5243F8AC2C70473C
:10021C00106002402860024040600240586002407A
:10022C007060024088600240A0600240B8600240EA
:10023C00106402402864024040640240586402404A
:10024C00706402403D00002088640240400F002092
:10025C00A064024000003D20B86402400268134BC9
:10026C0010B51340CC680A6814434A6914438A6970
:10027C001443CA6914430A6A14434A6A14438A6AC7
:10028C0014434A6B14438A6B224313430360436940
:10029C000C6B23F00702CB6A2343134343610B69B6
:1002AC0043604B6883608B68C36010BD3F801CF05B
:1002BC000023036043608360C36003614361836117
:1002CC00C361036243628362C362036343638363F8
:1002DC007047036811B143F0010301E023F00103FF
:1002EC0003607047036812B143F4002301E023F468
:1002FC000023036001617047036811B143F480234C
:10030C0001E023F48023036070470068C0F3C04011
:10031C0070470000044B1A6B09B1104301E022EA4C
:10032C0000001863704700BF00380240044B1A6C81
:10033C0009B1104301E022EA00001864704700BFC5
:10034C0000380240044B1A6A09B1104301E022EA5A
:10035C0000001862704700BF00380240044B5A6A14
:10036C0009B1104301E022EA00005862704700BF57
:10037C000038024008B5474B984205D10120014690
:10038C00FFF7ECFF01203DE0B0F1804F05D10120DB
:10039C000146FFF7D7FF012076E03F4B984205D18D
:1003AC0002200121FFF7CEFF02206DE03B4B98426B
:1003BC0005D104200121FFF7C5FF042064E0384B70
:1003CC00984205D108200121FFF7BCFF08205BE013
:1003DC00344B984205D110200121FFF7B3FF1020B8
:1003EC0052E0314B984205D120200121FFF7AAFFA2
:1003FC00202049E02D4B984209D102200121FFF722
:10040C00ADFF02200021BDE80840FFF7A7BF284B35
:10041C00984207D14FF480300121FFF79FFF4FF432
:10042C008030EFE7234B984207D14FF40030012185
:10043C00FFF794FF4FF40030E4E71F4B984207D1CD
:10044C004FF480200121FFF789FF4FF48020D9E77A
:10045C001A4B984205D140200121FFF773FF402031
:10046C0012E0174B984205D180200121FFF76AFF5B
:10047C00802009E0134B98420BD14FF4807001217E
:10048C00FFF760FF4FF480700021BDE80840FFF7D4
:10049C0059BF08BD000001400004004000080040A6
:1004AC00000C00400010004000140040000401400B
:1004BC000040014000440140004801400018004049
:1004CC00001C004000200040C1627047038819B135
:1004DC009BB243F0010303E023F001031B041B0C4C
:1004EC000380704783899BB20AB1194301E023EA68
:1004FC00010181817047838823F070031B041B0C5E
:10050C00838083889BB21943818070477047704702
:10051C00006A0368DB6818470246037C13F0080086
:10052C001EBF506AD36A181A0028B8BF6FF000407B
:10053C007047036808681847012A03D0022A03D0C1
:10054C00002070470160FBE70B680360F8E7704719
:10055C0010B50446102106F075F9204610BD10B5F3
:10056C000446342106F06EF9204610BD07B5012271
:10057C000DF10701103000F0E8FE012814BF4FF018
:10058C00FF309DF8070003B05DF804FB103001F05C
:10059C00ABB8103000F087BF103001F04BB907B585
:1005AC0001228DF8071010300DF1070101F042F90E
:1005BC0003B05DF804FB0000024B986808B103F02F
:1005CC0091BD70479400002010B50446094B0360A0
:1005DC0004F03AFC214604F047FE05F08BFE05F0D2
:1005EC006FFE2046044B40F8043B04F02BFD2046E4
:1005FC0010BD00BFE07D0A08C87D0A0810B504468E
:10060C00FFF7E2FF2046242106F01CF9204610BD1E
:10061C000EB403B503AB53F8042B0021019305F082
:10062C004DFB02B05DF804EB03B0704773B50446A4
:10063C0022790846A36832B1A3B90B4902B0BDE8D0
:10064C00704005F00BBB094A267B094D0949647BB8
:10065C00012E18BF2946CDE900140749FFF7D8FF32
:10066C0002B070BD054AEFE7717C0A08CD7E0A081E
:10067C006D7C0A08697C0A08877C0A08607C0A0879
:10068C000EB410B50023016820208DB00FAA52F8CB
:10069C00044BCDE90403CDE9004203921E2004AAC9
:1006AC0003F0C2FE0DB0BDE8104003B070470EB4AD
:1006BC0010B50023016820208DB00FAA52F8044B0E
:1006CC00CDE90403CDE900420392282004AA03F0EB
:1006DC00ABFE0DB0BDE8104003B070470EB410B5C2
:1006EC000023016820208DB00FAA52F8044BCDE9ED
:1006FC000403CDE900420392322004AA03F094FED5
:10070C000DB0BDE8104003B070470EB40FB505AA8C
:10071C0052F8043B0092016803921E20002203F061
:10072C008BFE04B05DF804EB03B07047642270B527
:10073C0080F86024154A0023C0F870240122144E5E
:10074C00C371A0F83C3480F86A3480F87424C0F883
:10075C007834A0F87C343178044611EA0205BFF3F2
:10076C005B8F0DD13046FFF7A1FC48B129460948F3
:10077C0005F058FB3046FFF79EFC074807F05AF887
:10078C00044B2046C4F86C3470BD00BFB47D0A081D
:10079C009000002094000020C5050A082DE9F04FB8
:1007AC0083B0DFF8D0B000AF9BF81040002C4ED0D7
:1007BC00E9462B4D2B4803F07FFCEB8A0646DC0206
:1007CC00A9EBC3239D46224669460BF1100000F0AD
:1007DC00BCFD8442EA46804603D90BF1100000F0C0
:1007EC00B9FF4FF0000B4FF480628021304607F0C8
:1007FC005DF800245A46904515DD3AF802307A60CF
:10080C0083F4004318B226F81B30404306F0E2FD97
:10081C000146204606F02AFD2B8C7A6804461A44C1
:10082C000BF1010BE7E72046C7F804B006F014F80B
:10083C0001460D4806F018FD06F00EF80B4A106044
:10084C00CD467B6818460C37BD46BDE8F08F054891
:10085C0003F012FC6FF07F42054B1A602346F1E760
:10086C00E41500207C150020D0FC7F497815002071
:10087C00A0000020B01500202DE9F04101460746EC
:10088C008EB03B4807F089F820B13946394807F05B
:10089C0084F8B8B905F02EFD002504462B46364ADF
:1008AC00364901A8ADF8045000F05BFF28B12B4687
:1008BC000822214601A801F09FFC002630460EB00C
:1008CC00BDE8F0812E4B1A7C98461AB103F110004A
:1008DC0000F040FF38462B4907F05FF810B92A4B5F
:1008EC002A4A1A604FF47A7300260393284B294D39
:1008FC003A462249019305A8334605ACADF814607D
:10090C00029600F02EFF0FCC0FC50FCC0FC523683D
:10091C0098F810402B60029BC8F80430039BC8F871
:10092C000830049BC8F80C30DCB11B4C4FF48052DF
:10093C0080211A4806F0BAFF2C222146A5F120008E
:10094C0000F003FD2C28B9D1A66AFFF727FF218BF5
:10095C00134803F08DFB3A4612491348FFF7D5FEB6
:10096C00ACE73A4611491048FFF7B8FE2646A5E712
:10097C00A47C0A08A77C0A08AB7C0A083015002066
:10098C00B0150020AD7C0A08A000002000FFFF007D
:10099C00F87D0A08C0150020E4150020C8000020CE
:1009AC007C150020B87C0A0834160020C37C0A0889
:1009BC0070B5114E114C308805F0E1FE104902461D
:1009CC001048FFF7A2FE25780DB1002070BD3088CD
:1009DC0005F0D5FEB0F57A7F06DD01200A4B2070BC
:1009EC001D600A4B1D60F1E72478002CEDD10848FE
:1009FC00FFF742FF2046E9E704000020A400002096
:100A0C00D07C0A083416002010160020A800002004
:100A1C00F37C0A082DE9F04F05208DB005F09CFE03
:100A2C00003818BF0120AD4C2070AD4803F034FBEA
:100A3C00A34608B1FFF7B2FEAA4BAB4D1A78984605
:100A4C00AA4C002A40F0DC80A94B1E7C002E00F042
:100A5C00CD80A84B186806F00BF90022A64B06F0C7
:100A6C0089FA80468946003E18BF0126DFF8D0A2DD
:100A7C00A249DAE90023A248CDE9022300964246B6
:100A8C004B46FFF742FEDAE90023CDE9042303F0DD
:100A9C0059FB2B68C01A06F0C9F80022994B06F0D6
:100AAC0069FADDE9042306460F464046494605F03F
:100ABC007FFF02460B463046394606F031F9DDE938
:100ACC00042305F077FFDDE9042306460F461046A4
:100ADC00194606F037FB002840F08D8042464B4605
:100AEC004046494606F02EFB002840F08480CDE9B4
:100AFC00048932463B463046394606F023FB08B1A2
:100B0C00DDE9046732463B4630463946CAE90067A0
:100B1C0006F018FB08B1CAE90089DAE9000106F011
:100B2C0027FB0146784805F012F99BF800304BB1D1
:100B3C00764B1B7833B97648FFF79EFE237883F00B
:100B4C000103237003F0FEFA724E3368834238D2ED
:100B5C0006F0D8FE704A07465168106809AB03C30B
:100B6C001189927A198007A86C499A7006F01FFFB8
:100B7C000220FFF78CFA1F2397FBF3F30A22C3EB37
:100B8C004313FB1A014693FBF2F005F0ACFC012277
:100B9C00014607A806F01BFF062207A909A806F0C4
:100BAC003BFF09A8FFF768FE06F0ACFE5C4B90FB20
:100BBC00F3F202FB1300336800F59C500830184424
:100BCC00306022780AB1574B1A680021564803F05E
:100BDC0073F9554802F0C0F89BF800304B4A13707B
:100BEC0003F0B0FA28600DB0BDE8F08F4FF00008AC
:100BFC00DFF8389137E700224C4BCDE9042378E736
:100C0C0003F0A0FA434F4A4E3B6883422AD2336822
:100C1C00072B27D8DFE813F008003F0049009600A7
:100C2C00B800C400D700E9003748002105F08FF860
:100C3C00002340482370FFF71FFE03F083FA804621
:100C4C0006F060FE424200F0030341F2883002F0ED
:100C5C00030258BF5342804400FB03833B6033685C
:100C6C000133336022780AB12E4B1A6800212E48CA
:100C7C0003F022F93368022BABD106F043FE0A23B2
:100C8C0090FBF3F202FB1303002BA2D1237883F029
:100C9C00010323709DE72848FFF7EEFD01236FF059
:100CAC007F4223701F4B1A60C7E72448FFF7E4FD0F
:100CBC000023237003F046FA804606F023FE4FF41F
:100CCC007A6390FBF3F202FB130308F5FA684344D2
:100CDC003B60336801333360C4E700BFBC000020C5
:100CEC007C150020A4000020C8100020000000206B
:100CFC00B01500207815002000003440FD7C0A0857
:100D0C003416002000805140AC000020F010002070
:100D1C000D7D0A0810160020677D0A08167D0A084A
:100D2C00A0860100A00000208C15002000001440BB
:100D3C00A80000201C7D0A082A7D0A08377D0A08B5
:100D4C00C00000203648FFF797FD03F0FBF9804602
:100D5C0006F0D8FD814606F0D5FD424202F00702AE
:100D6C0000F0070358BF5342023399FBF3F003FB27
:100D7C0010934FF4FA6908F5FA6809FB03833B609A
:100D8C003368013333606DE72648FFF775FD336830
:100D9C000133336003F0D6F900F5B470386061E7C5
:100DAC0001234FF47F4223701F4B28211F481A60E8
:100DBC0004F0CDFF03F0C6F9336800F57A70013307
:100DCC00386033604EE7072300211848336004F085
:100DDC00BEFF1748FFF750FD0023237003F0B2F954
:100DEC0000F51C50103038603CE7002388F80030C8
:100DFC00336001236FF07F4223700B4B1A6003F0BA
:100E0C00A1F9804606F07EFD0A4B90FBF3F202FB43
:100E1C00130308F59C5008301844386022E700BFD3
:100E2C00437D0A08517D0A08A0000020AC00002078
:100E3C005C7D0A08A086010070B51426D0E9005329
:100E4C00044606FB0356AE4204D0284605F0A7F82C
:100E5C001435F8E7206803F0A3FB204670BD0000B2
:100E6C007FB5002605460296D1B1124B1020039394
:100E7C00114B00910293FFF708F9044680B1029BD5
:100E8C00866033B1022269469847039BE360029B5C
:100E9C00A36021462A46094803F0D2FB044600E031
:100EAC000024029B1BB16946032208469847204642
:100EBC0004B070BD3F050A0845050A0825460A0816
:100ECC0070B586B005F016FA4FF4165105F0F4F92A
:100EDC004AF64441344803F0CBF834493448FFF720
:100EEC00BFFF34493448FFF7BBFF344B0125029355
:100EFC000023334C8DF80C30324B04F58C66049384
:100F0C000C22304602AB04F26C41ADF8145001F0E7
:100F1C00BDFC002842D004F23C40266000F01AFCD4
:100F2C002946204601F017FB04F23C45014680B3EC
:100F3C00234901F23C4000F0EFF978B394F83C34CB
:100F4C0013F0700F2AD0204B204921481D60FFF769
:100F5C0097FB204801F0CAFE0021B4234FF408721D
:100F6C00CDE900131C484FF4166304F02DFF032148
:100F7C00052005F0C7FB06F0C5FC184B90FBF3F2FF
:100F8C0002FB1300164B00F59C500830186006B09D
:100F9C0070BD204601F0DFFA0028C9D111490C4878
:100FAC00FFF785FBD5E700BF7C15002085080A08F4
:100FBC00727D0A08BD090A087A7D0A08B47D0A0800
:100FCC00F410002080F0FA0218160020827D0A0826
:100FDC00341600208C150020AC000020A0860100E7
:100FEC0010160020917D0A082DE9F843B1F1000894
:100FFC00074635DD4FF0140909FB08F003F0C8FA79
:10100C000546A8B3D7E90046844209FB064615D22B
:10101C00864214D9143EA4F11409341B0444B1457E
:10102C001FD02CB13146204605F033F8337C2374A5
:10103C00304604F0B4FF143E143CF0E711D0A9463E
:10104C00A6420ED02146484605F023F8237C2046C4
:10105C0089F8103004F0A3FF143409F11409EFE7F8
:10106C000025386803F09CFA01203D60C7F8088021
:10107C00BDE8F88300232DE9F041C0E9003383601B
:10108C000D4649680446994217DDFFF7ADFFA0B144
:10109C00D5E900634FF0140808FB03682768B045D6
:1010AC0009D02FB13146384605F00DF8337C3B742E
:1010BC0014361437F3E76B6863602046BDE8F081A3
:1010CC0030B593B03B490DA804F0B3FF1E238DF847
:1010DC0044300023012101A8CDE901330393FFF72C
:1010EC0083FF50B1019C34B120460DA904F0EBFFF5
:1010FC009DF8443023740123029305F0FBF8054658
:10110C0001A904A8FFF7B6FF04A907A8FFF7B2FFCF
:10111C00294C2A4B07A923600AA8FFF7ABFF0AAAA0
:10112C004621201D04F0F8F90AA8FFF785FE07A850
:10113C00FFF782FE224B2562236004A8FFF77CFE9A
:10114C00204B236005F0D6F84FF4165105F0B4F897
:10115C0003F07AFE214604F072F901A8FFF76CFE49
:10116C000DA804F01CFF1848FFF7E0FA0022174BFB
:10117C0017481A825A604FF47A729A60154A1A60AC
:10118C00154A4FF48063A2F5006102F0E1FE1349A9
:10119C00134804F04EFF134B134A14491B78127872
:1011AC000988134801F0C7FD124804F0F9FD13B08B
:1011BC0030BD00BFA57D0A08CC100020C87D0A08F0
:1011CC00087F0A08E07D0A08F4100020B015002002
:1011DC007C150020F87D0A08C8080020CD7E0A087E
:1011EC00A015002008000020100000200C0000209A
:1011FC008C150020AC00002010B50446243001F002
:10120C009DF828B104F50C70BDE8104001F096B8BB
:10121C0010BD8378016943F00403837000F1100260
:10122C00806801F040B900002DE9F04101780446D6
:10123C0011F0200503D000263046BDE8F08142694C
:10124C00174B9A42F7D2FFF7E4FF06460028F2D07C
:10125C002169A06801F0BCF80746A0680522394650
:10126C00243001F092F880460028E4D029464FF44F
:10127C00007206F01BFB0125A3681A79AA4209D952
:10128C0042461868E91901F034FC0028D3D0013526
:10129C00EDB2F1E7636903EB42236361CCE700BF76
:1012AC0000FE1F0010B5044680680A462430A16970
:1012BC0001F06BF820B1A38803F00F0300EB43108F
:1012CC0010BD0023F0B50446451E082618462E27EF
:1012DC0015F8012F202A18D0082B02BF421C0F54DE
:1012EC00D0B22A7808BF1026A2F1410CBCF1190F1C
:1012FC0006D894F80CC016EA0C0F1CBF2032D2B2E0
:10130C0000F1010C0A545FFA8CF00133DBB20B2BA9
:10131C00DED100230B54F0BD70B5047805460E46A3
:10132C004CB92422214606F0C1FAAE60F379102B99
:10133C0003D0202B07D0002004E0202301242046DA
:10134C002B70AC7070BD4023F8E72DE9F74F037894
:10135C00044688461546002B5DD08278D1075AD5B5
:10136C001A072DD5C36942699B1A9D4228BF1D4699
:10137C002E464FF0000904F1100B002E00F08F8068
:10138C00227863699706A068C3F3080A4FEA5321D1
:10139C001FD5006A0144A068BAF1000F42D1B6F51E
:1013AC00007F3FD3C36A99423CD0B6F5806F52D2CE
:1013BC004246006801F014FB68B34FF4007744E038
:1013CC009B06D5D583681A894369C3EB42139BB23C
:1013DC00CBE790F8059009EA0109BAF1000F08D1A2
:1013EC00B9F1000F05D15BB951064CBF036A236AF2
:1013FC0023612169A06800F0EBFF09EB0001CAE74B
:10140C005A46216900F0EAFF002804DBF1D1237869
:10141C0013F0700F43D163784FF0FF3043F00203A9
:10142C0063703DE0CAF50077B7424FF0000200F15F
:10143C00240028BF374600F0A8FF0028EBD000EBB3
:10144C000A013A46404606F009FA6369B8443B443F
:10145C006361F61B91E722784FEA562A920606D46E
:10146C000279A2EB0902D2B2924528BF9246994268
:10147C004FEA4A2708D2A06853464246006801F05A
:10148C00F7FA0028E1D1C6E753448B42F3D9243054
:10149C00019100F053FF01990028ECD1BBE7A81B88
:1014AC0003B0BDE8F08F73B50122D0E904560DF1FD
:1014BC0007010446FFF749FF012812BF4FF0FF3028
:1014CC009DF80700C4E9045602B070BD37B54369F6
:1014DC00044613F4F07FC3F3431500D099B90122ED
:1014EC0020460DF10701FFF730FF40B2012802D072
:1014FC00002003B030BD63691F33A06863613030D6
:10150C0000EB4510F5E72033F7E72DE9F0410278C1
:10151C0004460D46076962B14069884202D019B988
:10152C0021616561012006E0160706D5E3698B424F
:10153C000BD200202761BDE8F081910605D5A36888
:10154C001B89B5EB431FECD9F3E7D4F808C0431E55
:10155C009CF8066006F109016E1ECB40CE40B342EA
:10156C0000D898B953064CBFDCF82030236A2361AD
:10157C0004F11008002ED4D042462169A06800F076
:10158C002DFF002806F1FF36F4DCD2E7F61AEFE760
:10159C00F8B50F4604461646002124221D4606F0D7
:1015AC0085F9B868A680A0603B6A06F00F0600F1CA
:1015BC003002E360710102EB4616F37A1F0746D442
:1015CC00431893F83B3003F017032370F27A12F0B0
:1015DC00180F04BF43F0080323709DF81830E37014
:1015EC0005F00303012B2CD0022B28D07BBB6A0502
:1015FC002DD40123A370A278930704D52378DF069A
:10160C0025D4DE0723D4AB1123F07F0305F00806A5
:10161C0033431343A370C36AA3614318B3F8442044
:10162C00B3F84A1041EA02416A0513D559B9A378B7
:10163C0043F00403A3706B0410D40120F8BD032302
:10164C00D8E70223D6E700F069FF0028EFD100208D
:10165C002070F3E72162DB6CE361ECE72046E16983
:10166C00FFF753FF0028E8D1F1E72DE9F7430378A2
:10167C0006460D4617465BBB0B7813F0700F27D050
:10168C004C6914F01F0423D1A04600212846D5F83C
:10169C001490FFF71BFFD8B10278CAB12E2A11D0D3
:1016AC00E52A0FD0C17A11F0080F13D164B93B466B
:1016BC00294630460094C9F34F12FFF769FF03B077
:1016CC00BDE8F0830024E0E700F07AF94045EED065
:1016DC000020F4E70F29F5D15106D6D590F80D80EE
:1016EC0002F01F04D1E7000038B5037804460BB9AB
:1016FC00012038BD83785A0723D50121FFF7D2FD8D
:10170C00054628B96378002043F001036370F0E7C5
:10171C000378E52BF6D023781B0744BFE369C3613C
:10172C00238C4383638C8382094B1B682BB100F1A0
:10173C001601183098472B8B6B82A37823F0040387
:10174C00A370A068FFF758FD0028DBD0D0E700BFDE
:10175C001416002010B50446FFF7C6FF00232370B3
:10176C0010BDF0B51F46002393B0ADF824300378BC
:10177C0006460C46019213B1002013B0F0BD0B7855
:10178C0013F0700FF8D013782F2B12D1019A137815
:10179C002F2B02D101320192F8E7A1681BB9304618
:1017AC00FFF7BAFDE9E709A8FFF7B6FD0028E3D07B
:1017BC0009AC019801AA03A900F028F90028DBD094
:1017CC00019B1B789BB100232146304603AA00F0F5
:1017DC00B1FA0028D0D0354609AC0FCD0FC40FCDCF
:1017EC000FC42B6830462360FFF7B4FFE0E73B469D
:1017FC002146304603AA00F09DFABEE770B50646B6
:10180C000C46FFF771FF054610B90025284670BD40
:10181C0000213046FFF746FD03460028F5D021464F
:10182C0000F1200253F8040B934241F8040BF9D158
:10183C00ECE700002DE9F0470378894619070446C8
:10184C0017465BD583789A0758D51B0751D4636923
:10185C00DB43BB4252D3B84604F1100A6669B8F1B7
:10186C00000F00F09180A068C6F30805437913EAD5
:10187C0056260ED16DB92169002946D0524600F08A
:10188C00ADFD00283ADB04D12046FFF7C2FC00284E
:10189C0034D02169A06800F09BFD3118A06815B9FF
:1018AC00B8F5007F3FD2C5F50076464528BF4646C1
:1018BC00002D36D16269E3699A4234BF01220522B8
:1018CC00243000F062FDC8B1284432464946354404
:1018DC0005F0C4FFB5F5007F04D1A068243000F0FA
:1018EC002DFD58B16369B14433446361A8EB06081C
:1018FC00B4E7C169FFF709FE0028A8D163784FF05F
:10190C00FF3043F00103637050E0236A3BB920467B
:10191C00FFF77FFC0028F1D023692362B9E723612C
:10192C00B7E70122CCE7B8F5806FC26A1BD390F8F9
:10193C0004C04FEA582EACEB0606F3B2734528BF31
:10194C00734691424FEA432607D31A448A4282BF18
:10195C004FF0FF3280F82450C262A5684A462868CE
:10196C0001F03CF9BDE7914202BF4FF0FF3380F824
:10197C002450C362A3684A46186801F0BAF80028DC
:10198C00BCD04FF40076ADE7E269A378B24204D242
:10199C00E66143F00403A37003E0084A1268002ACE
:1019AC00F7D194F90230002B02DB3846BDE8F08702
:1019BC002046FFF799FE0028F7D19FE71416002068
:1019CC00411E00F10A030020420842EAC01011F83F
:1019DC00012F10448B4200F0FF00F5D1704738B551
:1019EC00CB6804460D4623B9BDE838408968FFF73B
:1019FC0093BC2422002105F059FF102301202370F1
:101A0C00A070AB68A360EB68236238BD2DE9F0478A
:101A1C00064610F8013B202BFAD000246A4D8E604C
:101A2C00335DC3B12F2B16D05C2B02D10020BDE847
:101A3C00F087A3F12200C0B21D2803D825FA00F0CC
:101A4C00C007F3D403F0BF003C28EFD0203B5E2B43
:101A5C00ECD80134E4E733191846074610F8015B5B
:101A6C00202DFAD02F2DF8D017604CB113F8012D82
:101A7C002E2A01D0202A01D1013CF6E7FF2CD5DC1F
:101A8C0020204C6001F10D0301F1180203F8010B49
:101A9C009342FBD14FF0000816F808302E2B01D0E2
:101AAC00202B02D108F10108F6E7B8FA88F0651E80
:101ABC0040096B1C02D0735D2E2B14D14FF0000922
:101ACC0007274A46CA464FF0080EA04569DA16F8B1
:101ADC000830202B03D02E2B07D1A84512D0002084
:101AEC0008F10108F1E7013DE3E7222B08D07C2B3C
:101AFC0006D0A3F12A0CBCF1050F0BD82D2B13D05B
:101B0C00A8455CD10A2F4BD0A8460A2708224FF0D3
:101B1C00100EE5E7A3F13A0CBCF1050FF0D9A3F1D7
:101B2C005B0CBCF1020FEBD9A3F1210CBCF15D0FE6
:101B3C00E6D8A845E6D0BA4230D8A3F1610CBCF186
:101B4C00190F1AD8203B4EEA0909DBB25FFA89F962
:101B5C0002F1010C5FFA8CFC0A44BCF1060F5373C2
:101B6C0001D881F80CC06246BAE7A84518DCA84633
:101B7C000A2708224FF0100EB1E7A3F1410CBCF17B
:101B8C00190F98BF4EEA0A0AE2E701200B7B087096
:101B9C0019447E234B7331238B7348E70A2FE4D10E
:101BAC0000204B7B202B3FF441AF0028EDD01AEAEC
:101BBC00090F18BF4FF0020981F8009037E7BA42BD
:101BCC00ECD85F230020C3E7010100312DE9F0437D
:101BDC000024C3788BB007468946ADF8044033B96E
:101BEC0000F09BFB044620460BB0BDE8F083014699
:101BFC0001A8FFF7F4FE002847D04FF00108FB784E
:101C0C005FFA88F6B34240D3B98801A8A1EB08016A
:101C1C004901FFF77AFC002837D0002101A8FFF713
:101C2C0055FC054688B3C37A0F2B2ED1037803F0ED
:101C3C001F03B34229D10026042EF3B218D805EBAA
:101C4C004603B3F8011069B17F2928BF3F21D9F8A9
:101C5C00002048469268C9B2013690470D2E04F117
:101C6C000104E9D12B7808F101085B06C7D5BAE766
:101C7C000A2B95BF06F1FF33731C05EB430305EBF1
:101C8C00430394BFD9889988DDE70024ABE72DE99D
:101C9C00F84306460C4602257E2791F80C9001F17C
:101CAC000D086168A2686B189BB21144914206D072
:101CBC0012F8010B03EB431343409BB2F6E7B9F167
:101CCC00030F28BF4FF0030909F10402D2B203F04D
:101CDC000F01A018013A0929D2B294BF3031373123
:101CEC00914541734FEA1313F1D104EB0903002121
:101CFC0030465F73FFF709FC01213046FFF7E6FB26
:101D0C00014628B97078B0FA80F04009BDE8F88334
:101D1C0003786BB1C37A1B07EED40B22404605F057
:101D2C008FFD0028E8D10135ADB2642DB9D1EDE7B6
:101D3C000120EBE72DE9F04F89B004930B780D46A9
:101D4C0013F0700F9046059003D1002009B0BDE848
:101D5C00F08F059B1B78002BF7D153682846039313
:101D6C001378990718BF039B4FF000011FBF03F1B5
:101D7C000C070D23B7FBF3F701370CBF0127FFB29C
:101D8C00FFF7C3FB00239B461C461E469A4608F1F0
:101D9C000D02029307926A69012128460693C2F349
:101DAC004F19FFF793FB069B00286FD16B78002B24
:101DBC00CBD1049B9A05C8D503F00303013B012B3F
:101DCC00C3D8029B002C08BF4B460293BC42C0F008
:101DDC000381BAF1000F40F01B81029B2846590188
:101DEC00FFF793FB0028B0D0013F5FFA87FA564605
:101DFC004FF000090F27002E00F02181002128460A
:101E0C00FFF764FB044600289FD0564518BFB34625
:101E1C00AA6808BF46F0400B92F8243043F0010347
:101E2C0082F8243080F800B0C77280F80C9008F16A
:101E3C000D00FFF7C5FD0D2200230BF01F0B0BF15E
:101E4C00FF3B02FB0BF2607384F81A9084F81B9032
:101E5C00D8F808C00399914240F2E2801CF80210B5
:101E6C00042B5FFA83FE03F1010000F2DF8004EB28
:101E7C004303A3F801100D28034602F10102E9D136
:101E8C00013EF6B2B7E74FF0010A84E70278E52A83
:101E9C0000D07AB90299002C08BF4946BC4238BF21
:101EAC000134029138BFE4B2002A82D0E52A04D171
:101EBC00002670E7BC4238BF00242E2AF8D0C17A25
:101ECC000F295DD13EBB12F040063FF464AF02F027
:101EDC001F06B346437B4FF00D0E0BF1FF320EFB8A
:101EEC0002FE039A7245E3D94FF0000CA2EB0E02EE
:101EFC000692BCF1040F0CEB0E095FFA8CF214D8AD
:101F0C0000EB4C02B2F8012006998C451BD1002A3B
:101F1C0018BF00263FE70BF1FF3B5FFA8BFB5A45DE
:101F2C00C6D1427B9A42D6D0C2E70A2A95BF0CF1A1
:101F3C00FF320CF1010200EB420200EB420294BFB3
:101F4C00D2889288E0E7FF2AB2D8D2B2A2F141013E
:101F5C001929D8F8081098BF203211F8091098BF29
:101F6C00D2B2A1F14109B9F1190F9CBF2031C9B20C
:101F7C0091429DD10CF1010CBCF10D0FB9D10AE7C6
:101F8C000A0795D466B1BBF1010F02937FF4DDAE65
:101F9C00FFF716FD029B98427FF4D7AEB2460EE0D7
:101FAC000B220799069305F04BFC069B00287FF447
:101FBC00F2AE98F800A01AF0010A7FF464AF049B0B
:101FCC0019053FF5C2AE4A462946049B0598CDF843
:101FDC0000A0FFF7DDFAB9E600212846FFF776FAF4
:101FEC0098B96B78002B7FF4B0AE2846FFF71CF93C
:101FFC0000283FF4AAAEAB681B79012B3FF6E9AE83
:10200C001034E4B2A742F0D8E3E60134E4B2DDE6E2
:10201C0041462846FFF73BFE00287FF4DEAE94E6EF
:10202C0014BF4FF0FF31002189B219E7BEF10A0F3E
:10203C0094BF04EB430304EB400399801BE7314648
:10204C0028466F69FFF742FA044600283FF47DAE3C
:10205C002022314605F02AFC434653F80D2F22600E
:10206C005A6862601A8922819B7AA37298F80030B0
:10207C0003F0180323730F4B1B689BB104F10E0183
:10208C0004F110009847238AC7F34F196382238306
:10209C00E389E382AA6892F8243043F0010382F8C2
:1020AC00243090E721232374282363740823A67318
:1020BC00E373E8E7141600200A23B1FBF3F370B5C1
:1020CC000546C3EB4314C3EB840201F1300403F166
:1020DC0030010368C9B29B6804EB420498472B6833
:1020EC00E4B221462846BDE870409B68184770B59D
:1020FC0005460C46084649B105F061FC2B680246C2
:10210C0021462846BDE87040DB68184770BD0023A7
:10211C0030B5044685B048120D4600F2BC700DF186
:10212C000E018DF80E3000F0C1FA01462046FFF783
:10213C00DEFF23682D219B68204698472046C5F377
:10214C004311FFF7B9FF23682D219B682046984760
:10215C00204605F01F01FFF7AFFF05B030BD38B5C5
:10216C0004460D46C90AFFF7A7FF23683A219B686E
:10217C00204698472046C5F34511FFF79DFF23687D
:10218C003A2120469B68984705F01F012046BDE880
:10219C0038404900FFF790BF30B589B00C4669460E
:1021AC00FFF72CFB054670B12046BDF81810FFF761
:1021BC00AEFF2368202120469B6898472046BDF837
:1021CC001610FFF7CCFF284609B030BD1FB5002311
:1021DC000C46C0690DF10E018DF80E3000F066FA58
:1021EC00202301A9884202D900F8013DFAE72046D4
:1021FC00FFF77DFF04B010BD2DE9F0431F4600230F
:10220C008BB0ADF804300378064613F0700F0C4613
:10221C00154603D100200BB0BDE8F08341780029AE
:10222C00F8D1FFF772F905F002090022314601A836
:10223C00FFF71BFA002854D09DF80430980701D5FD
:10224C00E9074AD54FF00008B84507D0236820218C
:10225C0020469B68984708F10108F5E7B9F1000F93
:10226C0008D0214601A8FFF797FF236820212046BC
:10227C009B6898476A0708D5214601A8FFF7A6FF77
:10228C002368202120469B689847214601A8FFF728
:10229C009DFC9DF8043013F0700F04D023682F219F
:1022AC0020469B68984723680D219B6820469847D9
:1022BC0023680A219B68204698472B070DD59DF86B
:1022CC00043013F0700F08D0BB1C2A462146DBB239
:1022DC0001A8FFF791FF00289CD001A8FFF73AFA5C
:1022EC00A3E77078B0FA80F0400994E710B50C467B
:1022FC00017809B9002010BD11F0600105D02F2321
:10230C002370002363700120F5E7FEF7CBFF002854
:10231C00F0D02146FEF7D5FFF5E71FB50C46694610
:10232C00FFF7E4FF40B1684605F049FB236802461D
:10233C0069462046DB68984704B010BD70B5037839
:10234C000446DA071FD5436800F10C068168324653
:10235C00186800F0CEFB054610B90025284670BD64
:10236C0023789B0704D4237823F001032370F5E72B
:10237C00D4E90130196932460144186800F0B9FB00
:10238C000028F0D1E9E70125E8E770B58368044639
:10239C008B420E46154609D0FFF7D0FF08B9002036
:1023AC0070BD6B070AD50023A660237020462278E7
:1023BC0005F00305154300F80C5BF1E76368314643
:1023CC00186804F10C0200F00BFB0028EBD1E6E7D7
:1023DC00837902394069994008447047012970B5E6
:1023EC0005460C46164602D84FF0FF3070BDC36947
:1023FC008B42F9D3C379202B16D18169022201EBD0
:10240C00D41100F50C70FFF7C0FF0028ECD004F0DD
:10241C007F0450F8243023F07043EA699A422ABFB3
:10242C00012000203360E1E7102BDDD18369C1F37B
:10243C0007210222194400F50C70FFF7A6FF0028B3
:10244C00D2D0E4B230F81430E7E7012938B50C46A5
:10245C00154601D8002038BDC3698B42FAD3C37925
:10246C00202B0FD18169032201EBD41100F50C70E4
:10247C00FFF78BFF0028EDD004F07F0440F82450C8
:10248C000120E8E7102BE5D18369C1F30721032272
:10249C00194400F50C70FFF778FF0028DAD0E4B28D
:1024AC0020F81450ECE72DE9F341C46805468C4242
:1024BC000E46904601D3012701E00C460027EB693C
:1024CC000134A34202D2C7B9EC68F4E7A64214D097
:1024DC002146284601AAFFF781FF00280DDBEED02C
:1024EC00019B002BEBD107B1EC606FF070422146E1
:1024FC002846FFF7AAFF074620B90027384602B046
:10250C00BDE8F08116B9C8F80040F7E7224631461D
:10251C002846FFF79AFF0028F5D1EEE773B505467C
:10252C000C462146284601AAFFF758FF061E10DB71
:10253C00002221462846FFF788FF50B1EB68A342E2
:10254C0024BF04F1FF34EC60019C002EE9D102B0F1
:10255C0070BD0020FBE7012370B50022C3604FF073
:10256C00FF3304460D46C27100F12406806280F8E8
:10257C002420C362C0F8340280F83022C0F838320C
:10258C00B9B1042901D9002070BD11463046FFF7BE
:10259C00FCFE0028F7D000EB051393F8AE315B0678
:1025AC00F1D105F11B0100EB0111D1F80650002D02
:1025BC00E9D0002229463046FFF7E7FE0028E2D09A
:1025CC00B0F80B30B3F5007FDDD1037C022BDAD1F0
:1025DC00C389002BD7D0417B09264B1E6371002386
:1025EC00A37101232171994207D0013ECBD0A2796E
:1025FC005B000132DBB2A271F5E7C18A01B9416A15
:10260C002161C3892B44A361B0F8112003EB410372
:10261C0023622281B0F81110490101F2FF1103EB82
:10262C0051236361B0F8132002B9026AE91AA37945
:10263C001144D9404B1CE36140F6F473994202D823
:10264C000C23E3719FE74FF6F473994289BFC36A79
:10265C001023236220230120E37195E710B5044673
:10266C00092CE3B201F1FF301CD9A21002EB540487
:10267C00C4F30F122244C2F307210A44C2F3CC0460
:10268C00C2F3C70202EB8202A3EB4203DBB2092BBB
:10269C0084BF0A3BDBB203F13003014688BF01342F
:1026AC000370DDE7303301F8013C10BD030C1CD086
:1026BC00830803EB500303EB131303EB132303EB1C
:1026CC001343DA08C3F3C70303EB8303A0EB430004
:1026DC00C0B2092884BF0A38C0B200F1300088BFEC
:1026EC00013201F8010D1046E0E780B2FFF7B6BFEA
:1026FC0070B50D46144601F01DFD0C4E3368C01A22
:10270C000B4B984208D901F01DFD0A4B186001F0E3
:10271C00CFFE01F00FFD306001F014FD80B2401BC4
:10272C00A042D4BF0020012070BD00BF1C160020A9
:10273C00A0860100F01A002038B5057A04464DB980
:10274C00406800F06DFA63682946187D03F0EBFFD2
:10275C000123237238BD10B5037A04466BB143686C
:10276C000121187D03F0DFFFFF21606800F08AFA79
:10277C00606800F069FA0023237210BDF8B50446B6
:10278C000D46164601F0DEFC87B2606800F05FFA79
:10279C00FF2860720ED14FF47A7239462046FFF74B
:1027AC00A7FF0028F1D0552320462370FFF7D3FF55
:1027BC000020F8BDFE2801D05023F5E7324629460B
:1027CC00606800F049FA607208B16023ECE7606859
:1027DC0000F03DFA606800F03AFA0120E9E770B5C4
:1027EC0004460E4601F0AEFC85B232462946204620
:1027FC00FFF77EFF30B9606800F029FAFF28F4D1AA
:10280C00012070BD0020FCE7F7B5037A04460D46A5
:10281C0001920BB9FFF790FF25B14FF4967120464A
:10282C00FFF7DDFF606845F0400100F02BFA03264E
:10283C0001AFB95D606800F025FA013EF9D2002DB8
:10284C000CBF95218721606800F01CFA606800F0CD
:10285C00FEF90B25606800F0FAF90306607203D5E7
:10286C00013D15F0FF05F5D103B0F0BD70B5044680
:10287C000D46164637210022FFF7C6FF3246294681
:10288C002046BDE87040FFF7BFBF00002DE9F041C6
:10289C0000254160057205708572044690461E46FF
:1028AC0001F050FC41460746606800F0BDF96368D2
:1028BC004A4A1D720125DA601D822046FFF73CFF53
:1028CC0063682946187D03F02EFF0A25FF216068F6
:1028DC00013D00F0D7F915F0FF05F7D163682946E3
:1028EC00187D03F020FF0A25002220461146FFF731
:1028FC008BFF0128804618D0013D15F0FF0507D14C
:10290C00202320462370FFF726FF0020BDE8F0812E
:10291C00FD21606800F0B6F94FF40278606800F0B1
:10292C0096F9B8F10108F9D1DEE74FF4D572082118
:10293C002046FFF769FF052814D1002584F80A808A
:10294C00BFB22A4629212046FFF790FF0246D8B194
:10295C004FF4FA6239462046FFF7CAFE0028F0D041
:10296C004323CEE70425606800F071F9013D15F0B2
:10297C00FF056072F7D1AA2804D102234FF08045DD
:10298C00A372DDE72523BCE7A37A022B19D13A21E8
:10299C002046FFF739FF08B13723B2E7606800F033
:1029AC0056F900F0C000C02808BF0323606808BFB8
:1029BC00A37200F04CF9606800F049F9606800F00F
:1029CC0046F92046FFF7C7FE30796368B168B289D3
:1029DC001872D96001201A8298E700BF90D00300CA
:1029EC0038B5837A1546032B18BF49020A461121C4
:1029FC000446FFF709FF30B1302323702046FFF760
:102A0C00AAFE00250BE029464FF400722046FFF782
:102A1C00B5FE05460028F1D02046FFF79CFE28465F
:102A2C0038BD10B5837A0A46032B18BF4A0212210F
:102A3C000446FFF7E9FE30B1312320462370FFF73F
:102A4C008AFE002010BD0120FCE710B500220C21ED
:102A5C000446FFF7D9FE30B1282320462370FFF738
:102A6C007AFE002010BD2046FFF775FE0120F9E725
:102A7C00F8B5044616461F46FFF7D3FF68B100258C
:102A8C00ABB29F4206EB452109D94FF400722046A8
:102A9C00FFF774FE01350028F2D10020F8BD204666
:102AAC00BDE8F840FFF7D1BF38B50446154640687D
:102ABC0000F0E8F84FF400722946606800F0E6F880
:102ACC00FF21606800F0DEF8FF21606800F0DAF8A2
:102ADC00606800F0BCF8607200F01F00052806D09A
:102AEC00572320462370FFF736FE002038BD012007
:102AFC00FCE770B5837A1546032B18BF49020A46CA
:102B0C0018210446FFF780FE064630B132232370AD
:102B1C002046FFF720FE00251FE02A46FE21204616
:102B2C00FFF7C2FF0028F3D04FF4FA612046FFF7FD
:102B3C0056FE054608B95A23E9E732460D212046D0
:102B4C00FFF762FE08B12923E1E7606800F07FF827
:102B5C000028F8D12046FFF7FEFD284670BD38B599
:102B6C000D464FF4FA610446FFF739FE30B95B238A
:102B7C0023702046FFF7EFFD002006E02A46FC21DB
:102B8C002046FFF791FF0028F3D038BD10B5837AAB
:102B9C000A46032B18BF4A0219210446FFF734FEDC
:102BAC0030B1332320462370FFF7D5FD002010BD34
:102BBC000120FCE738B54FF4FA610446FFF70FFE2D
:102BCC00054630B9562323702046FFF7C4FD28462E
:102BDC0038BDFD21606800F055F8F5E7F8B50446FE
:102BEC0016461F46FFF7D2FF70B10025BD422046A6
:102BFC0006EB452104D0FFF7B2FF28B10135F5E70C
:102C0C00BDE8F840FFF7D6BF2046FFF7A4FD002033
:102C1C00F8BD00000122014B1A70704720160020ED
:102C2C00011D006803F036B910B504460175006843
:102C3C0003F007F9207D012103F064FD207D0121C3
:102C4C00BDE8104003F06FBD006803F008B9FF2128
:102C5C00006803F08BB9000037B50D460021134610
:102C6C00064A074C009200682A46217003F084F94A
:102C7C002378002BFCD0002003B030BD212C0A0897
:102C8C0020160020006803F071B9000037B5134618
:102C9C000022064D064C00950068227003F06CF97A
:102CAC002378002BFCD003B030BD00BF212C0A08C8
:102CBC002016002038B50446C0680D4608B101F056
:102CCC006FFCA379062B0CBF04200320684380B251
:102CDC00A08001F05DFCE06028B10021A28804F026
:102CEC00E5FD658038BDA0806080FBE710B504462B
:102CFC000121C07903F006FD0021E07903F013FDFA
:102D0C000123237010BD38B5037805460C461BB162
:102D1C000021C07903F0F6FC2B78EC7153B1A4B20E
:102D2C002046012103F0EEFC2046BDE8384000218E
:102D3C0003F0F9BC38BD70B5002504461646837106
:102D4C00C0E9035505700572FFF7B4FF2046314604
:102D5C00FFF7D9FF204670BDC368002B00F04184FB
:102D6C00F0B583790446023BDBB2042B8CBF3225D1
:102D7C00284A87B098BF52F8235001F0DBF9236939
:102D8C00C01AA842F9D372B6A388A579ADF80A3057
:102D9C00BDF80A30022DE1689BB200F06E82072D5F
:102DAC0000F06B82062D00F01D84052D00F0A18330
:102DBC00082D00F09E83002D40F04F85002B00F075
:102DCC0092834FF40006144A0496BDF80A3003317E
:102DDC00033B9BB2ADF80A3011F8033CDBB28DF823
:102DEC00073011F8023CDBB28DF8063011F8013CCB
:102DFC00DBB28DF808309DF807709DF806309DF811
:102E0C0008001B0243EA0743034303938DF8055064
:102E1C001BE100BF187E0A0824160020004600BFE4
:102E2C0000BF00BF00BF00BF00BF00BF00BF00BF9E
:102E3C0000BF00BF00BF00BF00BF00BF00BF00BF8E
:102E4C0000BF00BF00BF00BF00BF00BF00BF00BF7E
:102E5C0000BF00BF00BF00BF00BF00BF00BF00BF6E
:102E6C0000BF00BF00BF00BF00BF00BF00BF00BF5E
:102E7C0000BF00BF00BF00BF00BF00BF00BF00BF4E
:102E8C0000BF00BF00BF00BF00BF00BF00BF00BF3E
:102E9C0000BF00BF00BF00BF00BF00BF00BF00BF2E
:102EAC0000BF00BF00BF00BF00BF00BF00BF00BF1E
:102EBC0000BF00BF00BF00BF00BF00BF00BF00BF0E
:102ECC0000BF00BF00BF00BF00BF00BF00BF00BFFE
:102EDC0000BF00BF00BF00BF00BF00BF00BF00BFEE
:102EEC0000BF00BF00BF00BF00BF00BF00BF00BFDE
:102EFC0000BF00BF00BF00BF00BF00BF00BF00BFCE
:102F0C0000BF00BF00BF00BF00BF00BF00BF00BFBD
:102F1C0000BF00BF00BF00BF00BF00BF00BF00BFAD
:102F2C0000BF00BFE3791068C3EBC30300EB83075A
:102F3C00BF8850F823305F83004600BF00BF00BF3E
:102F4C0000BF00BF00BF00BF00BF00BF00BF00BF7D
:102F5C0000BF00BF00BF00BF00BF00BF00BF00BF6D
:102F6C0000BF00BF00BF00BF00BF00BF00BF00BF5D
:102F7C0000BF00BF00BF00BF00BF00BF00BF00BF4D
:102F8C0000BF00BF00BF00BF00BF00BF00BF00BF3D
:102F9C0000BF00BF00BF00BF00BF00BF00BF00BF2D
:102FAC0000BF00BF00BF00BF00BF00BF00BF00BF1D
:102FBC0000BF00BF00BF00BF00BF00BF00BF00BF0D
:102FCC0000BF00BF00BF00BF00BF00BF00BF00BFFD
:102FDC0000BF00BF00BF00BF00BF00BF00BF00BFED
:102FEC0000BF00BF00BF00BF00BF00BF00BF00BFDD
:102FFC0000BF00BF00BF00BF00BF00BF00BF00BFCD
:10300C0000BF00BF00BF00BF00BF00BF00BF00BFBC
:10301C0000BF00BF00BF00BF00BF00BF00BF00BFAC
:10302C0000BF00BF00BF00BF00BF00BF00BF00BF9C
:10303C0000BF049B5B0804939DF805300133DBB2A1
:10304C00172B8DF8053000F22787E3791068C3EB56
:10305C00C30300EB8307BF8850F823301F8303980A
:10306C00049B18427FF4DAAE004600BF00BF00BFDD
:10307C0000BF00BF00BF00BF00BF00BF00BF00BF4C
:10308C0000BF00BF00BF00BF00BF00BF00BF00BF3C
:10309C0000BF00BF00BF00BF00BF00BF00BF00BF2C
:1030AC0000BF00BF00BF00BF00BF00BF00BF00BF1C
:1030BC0000BF00BF00BF00BF00BFE3791068C3EBC7
:1030CC00C30300EB8307BF8850F823305F830046AF
:1030DC0000BF00BF00BF00BF00BF00BF00BF00BFEC
:1030EC0000BF00BF00BF00BF00BF00BF00BF00BFDC
:1030FC0000BF00BF00BF00BF00BF00BF00BF00BFCC
:10310C0000BF00BF00BF00BF00BF00BF00BF00BFBB
:10311C0000BF00BF00BF00BF00BF00BF00BF00BFAB
:10312C0000BF00BF00BF00BF00BF00BF00BF00BF9B
:10313C0000BF00BF00BF00BF00BF00BF00BF00BF8B
:10314C0000BF00BF00BF00BF00BF00BF00BF00BF7B
:10315C0000BF00BF00BF00BF00BF00BF00BF00BF6B
:10316C0000BF00BF00BF00BF00BF00BF00BF00BF5B
:10317C0000BF00BF00BF00BF00BF00BF00BF00BF4B
:10318C0000BF00BF00BF00BF00BF00BF00BF00BF3B
:10319C0000BF00BF00BF00BF00BF00BF00BF00BF2B
:1031AC0000BF00BF00BF00BF00BF00BF00BF00BF1B
:1031BC0000BF00BF00BF00BF00BF00BF00BF00BF0B
:1031CC0000BF00BF00BF00BF00BF00BF00BF00BFFB
:1031DC0000BF00BF00BF00BF00BF00BF00BF00BFEB
:1031EC0000BF00BF00BF00BF00BF00BF00BF00BFDB
:1031FC0000BF00BF00BF00BF00BF00BF00BF00BFCB
:10320C0000BF00BF00BF00BF00BF00BF00BF00BFBA
:10321C0000BF00BF00BF00BF00BF00BF00BF00BFAA
:10322C0000BF00BF00BF00BF00BF00BF00BF00BF9A
:10323C0000BF00BF00BF00BF00BF00BF00BF00BF8A
:10324C0000BF00BF00BF00BF00BF00BF00BF00BF7A
:10325C0000BF00BF00BF00BF00BF00BF00BF00BF6A
:10326C0000BF00BF00BF00BF00BF00BF00BF00BF5A
:10327C0000BF00BF00BF00BFDBE6002B00F03381B6
:10328C004FF400050026134A0495BDF80A300331AB
:10329C00033B9BB2ADF80A3011F8033CDBB28DF85E
:1032AC00063011F8023CDBB28DF8073011F8013C06
:1032BC00DBB28DF808309DF806709DF807309DF84C
:1032CC0008001B0243EA0743034303938DF8056090
:1032DC0080E000BF24160020004600BF00BF00BFE6
:1032EC0000BF00BF00BF00BF00BF00BF00BF00BFDA
:1032FC0000BF00BF00BF00BF00BF00BF00BF00BFCA
:10330C0000BF00BF00BF00BF00BF00BF00BF00BFB9
:10331C0000BF00BF00BF00BF00BF00BF00BF00BFA9
:10332C0000BF00BF00BF00BF00BF00BF00BF00BF99
:10333C0000BF00BF00BF00BF00BF00BF00BF00BF89
:10334C0000BF00BF00BF00BF00BF00BF00BF00BF79
:10335C0000BF00BF00BF00BF00BF00BF00BF00BF69
:10336C0000BF00BF00BF00BF00BF00BF00BF00BF59
:10337C0000BFE3791068C3EBC30300EB8307BF887E
:10338C0050F823305F83004600BF00BF00BF00BF72
:10339C0000BF00BF00BF00BF00BF00BF00BF00BF29
:1033AC0000BF00BF00BF00BF00BF00BF00BF00BF19
:1033BC0000BF00BF00BF00BF00BF00BF049B5B0885
:1033CC0004939DF805300133DBB2172B8DF80530D3
:1033DC0000F28380E3791068C3EBC30300EB83072F
:1033EC00BF8850F823301F830398049B18427FF446
:1033FC0073AF004600BF00BF00BF00BF00BF00BFDF
:10340C0000BF00BF00BF00BF00BF00BF00BF00BFB8
:10341C0000BF00BF00BF00BF00BFE3791068C3EB63
:10342C00C30300EB8307BF8850F823305F8300464B
:10343C0000BF00BF00BF00BF00BF00BF00BF00BF88
:10344C0000BF00BF00BF00BF00BF00BF00BF00BF78
:10345C0000BF00BF00BF00BF00BF00BF00BF00BF68
:10346C0000BF00BF00BF00BF00BF00BF00BF00BF58
:10347C0000BF00BF00BF00BF00BF00BF00BF00BF48
:10348C0000BF00BF00BF00BF00BF00BF00BF00BF38
:10349C0000BF00BF00BF00BF00BF00BF00BF00BF28
:1034AC0000BF00BF00BF00BF00BF00BF00BF00BF18
:1034BC0000BF00BF00BF00BF00BF00BF00BF00BF08
:1034CC0000BF00BF00BF00BF00BF00BF00BF00BFF8
:1034DC0000BF00BF00BF00BF70E7BDF80A309BB251
:1034EC00002B7FF4D1AE62B600F024FE206107B051
:1034FC00F0BD002BF7D04FF4000E0026544B18688B
:10350C00544BCDF810E0BDF80A200331033A92B2C7
:10351C00ADF80A2011F8032CD2B28DF8062011F860
:10352C00022CD2B28DF8072011F8012CD2B28DF8F2
:10353C0008209DF806C09DF807209DF8087012021F
:10354C0042EA0C423A4303928DF80560E2795D68D9
:10355C00C2EBC20200EB8207BF8850F8222005950F
:10356C001783039F049A174225D05A68059FD21BD4
:10357C004F2AFAD9E279C2EBC20200EB8207BF886C
:10358C0050F8222057835A6805925A68059FD21B1F
:10359C00072AFAD9049A520804929DF805200132A0
:1035AC00D2B2172A8DF80520D0D9BDF80A2092B2D4
:1035BC00002AA6D197E75A68059FD21B182AFAD978
:1035CC00E279C2EBC20200EB8207BF8850F82220DE
:1035DC0057835A6805925A68059FD21B452AFAD917
:1035EC00D8E77047002B3FF47EAF4FF00045002624
:1035FC00174A0495BDF80A300431043B9BB2ADF870
:10360C000A3011F8043CDBB28DF8073011F8033C9A
:10361C00DBB28DF8063011F8023CDBB28DF80830C5
:10362C0011F8013CDBB28DF809309DF807C09DF80C
:10363C0006309DF808001B049DF8097043EA0C63E2
:10364C003B4343EA002303938DF805607FE000BF02
:10365C0024160020001000E0004600BF00BF00BF91
:10366C0000BF00BF00BF00BF00BF00BF00BF00BF56
:10367C0000BF00BF00BF00BF00BF00BF00BF00BF46
:10368C0000BF00BF00BF00BF00BF00BF00BF00BF36
:10369C0000BF00BF00BF00BF00BF00BF00BF00BF26
:1036AC0000BF00BF00BF00BF00BF00BF00BF00BF16
:1036BC0000BF00BF00BF00BF00BF00BF00BF00BF06
:1036CC0000BF00BF00BFE3791068C3EBC30300EB7E
:1036DC008307BF8850F823305F83004600BF00BFCC
:1036EC0000BF00BF00BF00BF00BF00BF00BF00BFD6
:1036FC0000BF00BF00BF00BF00BF00BF00BF00BFC6
:10370C0000BF00BF00BF00BF00BF00BF00BF00BFB5
:10371C0000BF00BF00BF00BF00BF00BF00BF00BFA5
:10372C0000BF00BF00BF00BF00BF00BF00BF00BF95
:10373C0000BF00BF00BF00BF049B5B0804939DF853
:10374C0005300133DBB21F2B8DF805307ED8E379C1
:10375C001068C3EBC30300EB8307BF8850F823301A
:10376C001F830398049B18427FF476AF004600BF7A
:10377C0000BF00BF00BF00BF00BF00BF00BF00BF45
:10378C0000BF00BF00BF00BF00BF00BF00BF00BF35
:10379C0000BF00BFE3791068C3EBC30300EB8307E2
:1037AC00BF8850F823305F83004600BF00BF00BFC6
:1037BC0000BF00BF00BF00BF00BF00BF00BF00BF05
:1037CC0000BF00BF00BF00BF00BF00BF00BF00BFF5
:1037DC0000BF00BF00BF00BF00BF00BF00BF00BFE5
:1037EC0000BF00BF00BF00BF00BF00BF00BF00BFD5
:1037FC0000BF00BF00BF00BF00BF00BF00BF00BFC5
:10380C0000BF00BF00BF00BF00BF00BF00BF00BFB4
:10381C0000BF00BF00BF00BF00BF00BF00BF00BFA4
:10382C0000BF00BF00BF00BF00BF00BF00BF00BF94
:10383C0000BF00BF00BF00BF00BF00BF00BF00BF84
:10384C0000BF00BF00BF00BF00BF75E7BDF80A3066
:10385C009BB2002B7FF4CDAE45E6032D00F02B81FF
:10386C00002B3FF440AE4FF400050026174A049598
:10387C00BDF80A30E079033B9BB2ADF80A300B7807
:10388C001768DBB28DF807304B78C0EBC000DBB2A9
:10389C008DF808308B7807EB800CDBB28DF8063096
:1038AC009DF807E09DF80830BCF804C01B0243EA01
:1038BC000E439DF806E057F8200043EA0E030393ED
:1038CC0003318DF80560A0F81AC07CE024160020A6
:1038DC00049B5B080493004600BF00BF00BF00BF01
:1038EC0000BF00BF00BF00BF00BF00BF00BF00BFD4
:1038FC0000BF00BF00BF00BF00BF00BF00BF00BFC4
:10390C0000BF00BF00BF00BF00BF00BF00BF00BFB3
:10391C0000BF00BF00BF00BF00BF00BF00BF00BFA3
:10392C0000BF00BF00BF00BF00BF00BF00BF00BF93
:10393C0000BF00BF00BF00BF00BF00BF00BF00BF83
:10394C0000BF00BF00BF00BF00BF00BF00BF00BF73
:10395C0000BF00BF00BF00BF00BF00BFE079176809
:10396C009DF80530C0EBC00007EB800CBCF804C020
:10397C0057F820000133DBB28DF80530A0F818C0E1
:10398C00004600BF00BF00BF00BF00BF00BF00BFAC
:10399C0000BF00BF00BF00BF00BF00BF00BF00BF23
:1039AC0000BF00BF00BF00BF00BF9DF80530182B43
:1039BC007AD0E3791068C3EBC30300EB8307BF88AD
:1039CC0050F823305F830398049B184280D1004643
:1039DC0000BF00BF00BF00BF00BF00BF00BF00BFE3
:1039EC0000BF00BF00BF00BF00BF00BF00BF00BFD3
:1039FC00E3791068C3EBC30300EB8307BF8850F86F
:103A0C0023301F839DF805300133DBB28DF8053070
:103A1C00049B5B080493004600BF00BF00BF00BFBF
:103A2C0000BF00BF00BF00BF00BF00BF00BF00BF92
:103A3C0000BF00BF00BF00BF00BF00BF00BF00BF82
:103A4C0000BF00BF00BF00BF00BF00BF00BF00BF72
:103A5C0000BF00BF00BF00BF00BF00BF00BF00BF62
:103A6C0000BF00BF00BF00BF00BF00BF00BF00BF52
:103A7C0000BF00BF00BF00BF00BF00BF00BF00BF42
:103A8C0000BF00BF00BF00BF00BF00BF00BF00BF32
:103A9C0000BF00BF00BF00BF00BF00BF00BF00BF22
:103AAC009DF80530182B84D1BDF80A309BB2002B41
:103ABC007FF4DDAE17E5002B3FF415AD4FF4000598
:103ACC000026134A0495BDF80A300331033B9BB220
:103ADC00ADF80A3011F8033CDBB28DF8073011F861
:103AEC00023CDBB28DF8063011F8013CDBB28DF8EC
:103AFC0008309DF807709DF806309DF808001B02F1
:103B0C0043EA0743034303938DF80560E1E000BFEC
:103B1C0024160020004600BF00BF00BF00BF00BF3E
:103B2C0000BF00BF00BF00BF00BF00BF00BF00BF91
:103B3C0000BF00BF00BF00BF00BF00BF00BF00BF81
:103B4C0000BF00BF00BF00BF00BF00BF00BF00BF71
:103B5C0000BF00BF00BF00BF00BF00BF00BF00BF61
:103B6C0000BF00BF00BF00BF00BF00BF00BF00BF51
:103B7C0000BF00BF00BF00BF00BF00BF00BF00BF41
:103B8C0000BF00BF00BF00BF00BF00BF00BF00BF31
:103B9C0000BF00BF00BF00BF00BF00BF00BF00BF21
:103BAC0000BF00BF00BF00BF00BF00BF00BF00BF11
:103BBC0000BF00BF00BF00BF00BF00BF00BF00BF01
:103BCC0000BF00BF00BF00BF00BF00BF00BF00BFF1
:103BDC0000BF00BF00BF00BF00BF00BF00BF00BFE1
:103BEC0000BF00BF00BF00BF00BF00BF00BF00BFD1
:103BFC0000BF00BF00BF00BF00BF00BF00BF00BFC1
:103C0C0000BF00BF00BF00BF00BF00BF00BF00BFB0
:103C1C0000BF00BF00BF00BF00BF00BF00BF00BFA0
:103C2C0000BF00BF00BF00BF00BF00BF00BF00BF90
:103C3C0000BF00BF00BFE3791068C3EBC30300EB08
:103C4C008307BF8850F823305F83004600BF00BF56
:103C5C0000BF00BF00BF00BF00BF00BF00BF00BF60
:103C6C0000BF00BF00BF00BF00BF00BF00BF00BF50
:103C7C0000BF00BF00BF00BF00BF00BF00BF00BF40
:103C8C0000BF00BF00BF00BF00BF00BF00BF00BF30
:103C9C0000BF00BF00BF00BF00BF00BF00BF00BF20
:103CAC0000BF00BF00BF00BF00BF00BF00BF00BF10
:103CBC0000BF00BF00BF00BF00BF049B5B080493A4
:103CCC009DF805300133DBB2172B8DF8053000F26F
:103CDC00EB80E3791068C3EBC30300EB8307BF8869
:103CEC0050F823301F830398049B18427FF412AFC3
:103CFC00004600BF00BF00BF00BF00BF00BF00BF39
:103D0C0000BF00BF00BF00BF00BF00BF00BF00BFAF
:103D1C0000BF00BF00BF00BF00BF00BF00BF00BF9F
:103D2C0000BF00BF00BF00BF00BF00BF00BF00BF8F
:103D3C0000BF00BF00BF00BF00BF00BF00BF00BF7F
:103D4C0000BF00BF00BF00BF00BF00BF00BF00BF6F
:103D5C0000BF00BF00BF00BF00BF00BF00BF00BF5F
:103D6C0000BF00BF00BF00BF00BF00BF00BF00BF4F
:103D7C0000BFE3791068C3EBC30300EB8307BF8874
:103D8C0050F823305F83004600BF00BF00BF00BF68
:103D9C0000BF00BF00BF00BF00BF00BF00BF00BF1F
:103DAC0000BF00BF00BF00BF00BF00BF00BF00BF0F
:103DBC0000BF00BF00BF00BF00BF00BF00BF00BFFF
:103DCC0000BF00BF00BF00BF00BF00BF00BF00BFEF
:103DDC0000BF00BF00BF00BF00BF00BF00BF00BFDF
:103DEC0000BF00BF00BF00BF00BF00BF00BF00BFCF
:103DFC0000BF00BF00BF00BF00BF00BF00BF00BFBF
:103E0C0000BF00BF00BF00BF00BF00BF00BF00BFAE
:103E1C0000BF00BF00BF00BF00BF00BF00BF00BF9E
:103E2C0000BF00BF00BF00BF00BF00BF00BF00BF8E
:103E3C0000BF00BF00BF00BF00BF00BF00BF00BF7E
:103E4C0000BF00BF00BF00BF00BF00BF00BF00BF6E
:103E5C0000BF00BF00BF00BF00BF00BF00BF00BF5E
:103E6C0000BF00BF00BF00BF00BF00BF00BF00BF4E
:103E7C0000BF00BF00BF00BF00BF00BF00BF00BF3E
:103E8C0000BF00BF00BF00BF00BF00BF00BF00BF2E
:103E9C0000BF00BF00BF10E7BDF80A309BB2002B7B
:103EAC007EF492AFFFF71FBBBDF80A309BB2002B1C
:103EBC007FF408AEFFF717BB4388F0B58B4226D9C9
:103ECC00057AC2F30743C2F30724D6B23DB16B4364
:103EDC006C436E43C3F30723C4F30724360A90F8EC
:103EEC0006C0C768BCF1060F0CBF04250325694347
:103EFC00ACF1020C7D18BCF1060F1DD8DFE80CF0FC
:103F0C00041C08040F0404007C546B70AE70F0BDEC
:103F1C00FE2B28BFFE237B546E70AC70F7E77B54EE
:103F2C006C70AE70037A120E13B9D2B2EA70EEE76F
:103F3C005A43C2F30722F9E77B546C70AE70E6E784
:103F4C0008B500F007F9014B186008BD24160020D5
:103F5C004380FF2303714FF4FA5330B5C38000251F
:103F6C0091420CBF01230223C0E902120570437079
:103F7C0030BD0000F0B5064695B0384D0F463848B8
:103F8C000121FCF7D3F901214FF40010FCF7C2F921
:103F9C002846FCF7DDF805A8FCF78AF9738800249D
:103FAC000993304B4FF400620693B3684FF4807161
:103FBC000793402308934FF48063CDE90A434FF4F1
:103FCC000053CDE90C234FF40033CDE90E134FF021
:103FDC006063284605A90593FCF740F94FF40022CD
:103FEC002846F168FCF77EF928460121FCF784F994
:103FFC0001212846FCF76DF9FCF760F801A8FCF7E5
:10400C0081F8042320460DEB0301CDE9013404941F
:10401C00FCF762F820460121FCF77AF82046124C96
:10402C000121FCF785F82046FCF7A4F90F4B20463C
:10403C001B685B08B3FBF7F189B2FCF745FA204625
:10404C002021FCF758FA012220461146FCF74AFAC7
:10405C0001212046FCF73AFA15B0F0BD8860024009
:10406C00100000200C7400400010004020000020C4
:10407C00C180FFF77FBF000010B5064C0121204620
:10408C000022FCF72FFA2046BDE810400021FCF777
:10409C001DBA00BF0010004010B504460548FCF7DF
:1040AC0034F92379C0B2834216BF2071002001205D
:1040BC0010BD00BF8860024010B504460448FCF7F0
:1040CC0024F910F0FF0F14BFA068E06810BD00BF0A
:1040DC008860024008B5024B1B685B6C019308BDFD
:1040EC00D001060808B5024B1B689B6C019308BDF8
:1040FC00D001060808B5024B1B68DB6C019308BDA8
:10410C00D001060808B5024B1B685B6D019308BD16
:10411C00D001060808B5024B1B685B68019308BD0B
:10412C009C01060808B5024B1B68DB68019308BDAF
:10413C009C01060808B5024B1B681B69019308BD5E
:10414C009C01060808B5024B1B685B69019308BD0E
:10415C009C01060808B5024B1B681B68019308BD3F
:10416C00B001060808B5024B1B685B68019308BDDB
:10417C00B001060808B5024B1B689B68019308BD8B
:10418C00B001060808B5024B1B68DB68019308BD3B
:10419C00B001060808B5024B1B681B69019308BDEA
:1041AC00B001060808B5024B1B685B69019308BD9A
:1041BC00B001060808B5024B1B681B6B019308BDC8
:1041CC00B001060808B5024B1B681B6E019308BDB5
:1041DC00AC01060808B5024B1B685B6E019308BD69
:1041EC00AC01060808B5024B1B689B6E019308BD19
:1041FC00AC01060808B5024B1B68DB6E019308BDC9
:10420C00AC01060808B5024B1B681B6F019308BD77
:10421C00AC01060808B5024B1B685B6F019308BD27
:10422C00AC01060808B5034B1B68D3F8803001932A
:10423C0008BD0000AC01060808B5024B1B681B69E1
:10424C00019308BDA801060808B5024B1B685B6901
:10425C00019308BDA801060808B5024B1B689B69B1
:10426C00019308BDA801060808B5024B1B681B6822
:10427C00019308BDB401060808B5024B1B685B69C5
:10428C00019308BDB401060808B5024B1B68DB6935
:10429C00019308BDB401060808B5024B1B681B6AE4
:1042AC00019308BDB401060808B5024B1B685B6A94
:1042BC00019308BDB401060808B5024B1B689B6A44
:1042CC00019308BDB401060808B5024B1B689B6B33
:1042DC00019308BDB401060808B5024B1B68DB6BE3
:1042EC00019308BDB401060808B5024B1B689B6915
:1042FC00019308BDC401060808B5024B1B681B6A74
:10430C00019308BDC401060808B5024B1B685B6A23
:10431C00019308BDC401060808B5024B1B689B6AD3
:10432C00019308BDC401060808B5024B1B68DB6A83
:10433C00019308BDC401060808B5024B1B681B6B32
:10434C00019308BDC401060808B5024B1B685B6BE2
:10435C00019308BDC401060808B5024B1B689B6B92
:10436C00019308BDC401060808B5024B1B681B6C01
:10437C00019308BDC401060808B5024B1B68DB6C31
:10438C00019308BDC401060808B5024B1B681B68E5
:10439C00019308BDD801060808B5024B1B685B6881
:1043AC00019308BDD801060808B5024B1B689B6831
:1043BC00019308BDD801060808B5024B1B681B69A0
:1043CC00019308BDD801060808B5024B1B685B6950
:1043DC00019308BDD801060808B5024B1B689B6900
:1043EC00019308BDD801060808B5024B1B68DB69B0
:1043FC00019308BDD801060808B5024B1B681B6A5F
:10440C00019308BDD801060808B5024B1B689B6CCC
:10441C00019308BDC001060808B5024B1B685B6B15
:10442C00019308BDA801020808B5024B1B685B6D1F
:10443C00019308BDA801020808B5024B1B681B6E4E
:10444C00019308BDA801020808B5024B1B68DB6E7E
:10445C00019308BDA801020808B5024B1B681B6F2D
:10446C00019308BDA801020808B5024B1B685B68E4
:10447C00019308BDA401060808B5034B1B68D3F8CB
:10448C009030019308BD0000A401060808B5034B49
:10449C001B68D3F89C30019308BD0000A4010608EA
:1044AC0008B5024B1B685B68019308BDCC0106087C
:1044BC0008B5024B1B689B68019308BDCC0106082C
:1044CC0008B5024B1B68DB6B019308BDCC010608D9
:1044DC0008B5024B1B685B68019308BDC801060850
:1044EC0008B5024B1B689B68019308BDC801060800
:1044FC0008B5024B1B68DB68019308BDC8010608B0
:10450C0008B5024B1B681B69019308BDC80106085E
:10451C0008B5024B1B685B69019308BDC80106080E
:10452C0008B5024B1B689B69019308BDC8010608BE
:10453C0008B5024B1B68DB69019308BDC80106086E
:10454C0008B5024B1B681B6A019308BDC80106081D
:10455C0008B5024B1B681B6B019308BDC80106080C
:10456C0008B5024B1B685B6B019308BDC8010608BC
:10457C0008B5024B1B681B6C019308BDC8010608EB
:10458C0008B5024B1B685B6C019308BDC80106089B
:10459C0008B5024B1B681B68019308BDA0010608F7
:1045AC0008B5024B1B685B68019308BDA0010608A7
:1045BC0008B5024B1B689B68019308BDA001060857
:1045CC0008B5024B1B685B6A019308BDA001060885
:1045DC0008B5024B1B68DB6A019308BDA0010608F5
:1045EC0008B5024B1B68DB6B019308BDA0010608E4
:1045FC0008B5024B1B685B6C019308BDA001060853
:10460C008A4210B507D0029C401AE41A6043521A31
:10461C0090FBF2F0184410BD1FB50446684601F03B
:10462C0008FDA3680BB902F013F9E368694620464C
:10463C0098470446684601F0B2FC204604B010BD11
:10464C001FB500231024CDE90201019269461A46D8
:10465C001846ADF80230ADF80040FFF721FF04B06A
:10466C0010BD38B5046805467CB16368013B6360D6
:10467C005BB9236820469B689847A368013BA360FD
:10468C001BB923682046DB689847284638BD0B6861
:10469C00036013B15A6801325A6070477047F8B51D
:1046AC00064615460C468F18BC4206D03368304679
:1046BC009B6814F8011B9847F6E72846F8BD0022C2
:1046CC00007CFFF77FBD0021007CFFF783BD00213C
:1046DC00007CFFF787BD0021007CFFF78BBD00211C
:1046EC00007CFFF78FBD10B50446142102F0AAF828
:1046FC00204610BD10B54FF47A73044608460021CD
:10470C00C4E90113034B114623602074FFF78AFDA3
:10471C00204610BD347E0A08704710B50446182197
:10472C0002F090F8204610BDF8B50E46002400F1BA
:10473C000807051D17F8011D0A22304601F0A1FAE1
:10474C00AF42044401D12046F8BD002CF2D02E21FA
:10475C00304601F087FA0444ECE7000010B504463B
:10476C00044B1122002140F8043B03F09FF8204633
:10477C0010BD00BF5C7E0A080346074A10B543F81B
:10478C00042B01F1100251F8044B914243F8044BF5
:10479C00F9D10A781A7010BD5C7E0A08024AC0E989
:1047AC0000210422027570475C7E0A0810B59DF842
:1047BC00084044EA0324042344EA024444EA016422
:1047CC004460037510BD000037B5044D05609DF8BD
:1047DC0018500095FFF7EAFF03B030BD5C7E0A0865
:1047EC00012200F1100313F8101C1846012908D1FE
:1047FC0053F8041C02EB4102013A03F11003F2D10D
:10480C007047022904BF53F8041C5218F4E70EB485
:10481C002DE9F04187B000AF07F1340555F8048B52
:10482C0004462B464246102107F108007D60FFF735
:10483C00C7FE0F281BD900F1080323F007036E46AF
:10484C00ADEB030D4246411C2B4668467D60FFF7DD
:10485C00B7FE021E04DD2368694620469B68984714
:10486C00B5461C37BD46BDE8F04103B07047002883
:10487C00F7D0236802469B68204607F10801984749
:10488C00EFE710B5044603689B689847A368013BA3
:10489C00A3602BB923682046BDE81040DB6818479D
:1048AC0010BD07B503688DF8071001229B680DF148
:1048BC000701984703B05DF804FB38B50B68044654
:1048CC0003604D6843689D420CD015B16B68013391
:1048DC006B60606828B14368013B43600BB9FFF71C
:1048EC00D0FF6560204638BD0B461146002210B53E
:1048FC000446C0E9002283600BB9204610BDFFF7C7
:10490C00DCFFFAE70346806820B30278032A1AD842
:10491C00DFE802F00417021B052070471B685A6879
:10492C004368D05C2D2812D0A0F13003092B0ED98E
:10493C0074280ED066280CD0A0F16E035842584152
:10494C0070470620704700207047042070470320F2
:10495C0070470220704710B50446FFF7D3FF0228BA
:10496C000ED0C31EDBB2012B14D82268A36850688A
:10497C005B680A22BDE810400021184403F0EEB831
:10498C002268A36852685B68D05CA0F1740358423B
:10499C00584110BD0020FCE70B461146002210B513
:1049AC000446C0E900220D48C4E90202A3B11A78FA
:1049BC00032A06D082B90A6850685A68825C6E2A4B
:1049CC0007D00A68586852689B6802441B1AA26098
:1049DC00E3602046FFF771FF204610BDCD7E0A082C
:1049EC0038B500250B4604461146C0E90055C0E910
:1049FC000255C0E904554BB11A78012A06D103F1CE
:104A0C001002DB6882604361FFF757FF204638BD18
:104A1C0010B54369044663B18068013BE060103017
:104A2C00A0602061636113B1FFF7DAFEA060012082
:104A3C0000E0184610BD10B57D210446FFF731FF8C
:104A4C0001232046237110BD08B50379012B02D038
:104A5C00022B04D008BD2C21FFF723FFFAE73A21E3
:104A6C00FAE710B50446FFF7EFFF20467B21FFF76E
:104A7C0018FF00232046237110BD000038B50446F2
:104A8C000D46FFF7E1FF236820462A46DB68034901
:104A9C00984701232046237138BD00BF687E0A0861
:104AAC0038B504460D46FFF7CFFF236820462A464B
:104ABC00DB680349984701232046237138BD00BFAA
:104ACC006B7E0A082DE9F0410D461746222104465B
:104ADC00FFF7E7FE2946DFF898802F44BD422A46AF
:104AEC0038D015F8016B222E03D05C2E01D01F2E6E
:104AFC00F4D82368521A20469B6898475C212046BC
:104B0C00FFF7CFFE0D2E0AD8072E1CD9A6F10803ED
:104B1C00052B18D8DFE803F00D0F11171315222EF3
:104B2C0001D05C2E0FD131462046FFF7BAFE294644
:104B3C00D4E76221F8E77421F6E76E21F4E76621E9
:104B4C00F2E77221F0E72368324641462046DB68E3
:104B5C009847ECE78D4204D0236820469B686A1A7C
:104B6C00984722212046FFF79CFEBDE8F08100BF4C
:104B7C006E7E0A0870B504460D461646FFF764FFB4
:104B8C00204632462946FFF79DFF0223204623711B
:104B9C0070BD70B504460D461646FFF755FF20460E
:104BAC0032462946FFF78EFF01232046237170BD44
:104BBC0080680368DB6818477047084611B10B68BA
:104BCC005B6818477047704770477047704738B537
:104BDC0004460D4600682E2102F0D5FE23680246DD
:104BEC00C01A286020B1137803B10132206822600A
:104BFC0038BD10B504460C2101F024FE204610BD32
:104C0C0010B50446042101F01DFE204610BD10B560
:104C1C000446042101F016FE204610BD08B502F032
:104C2C00BCFEB0FA80F0400908BD704710B50C46C8
:104C3C0001F060FB844205D101F05CFBBDE8104043
:104C4C0001F03EBB01F090FB844202D101F08CFBE1
:104C5C00F4E701F0BBFA844205D101F0B7FABDE8E4
:104C6C00104001F0B0BA2CB123682046BDE81040CA
:104C7C005B68184710BD38B5054608460C4602F06F
:104C8C009EFE214602462846BDE83840FFF781BF0C
:104C9C0070B5044608460D4602F091FE23680246A4
:104CAC0029462046BDE87040DB68184707B5036805
:104CBC008DF807100122DB680DF10701984703B04E
:104CCC005DF804FB0EB403B503AB53F8042B0021C1
:104CDC00006A019300F0F2FF02B05DF804EB03B040
:104CEC00704700002DE9F74F4FF01408D0E90095FC
:104CFC0017464C4608FB05F50093AB10174D5D436A
:104D0C00002D23DD6E1008FB06F004EB000ABAF848
:104D1C0004B03A465F4528BF5A462058019102F02C
:104D2C0069FE0123019978B95F4503D1009A13708C
:104D3C003546E5E78CBF012000200028F8D0AE1BDB
:104D4C000AF11404013EF3E7C00FF6E7A4EB0904E3
:104D5C000248A410604303B0BDE8F08FCDCCCCCC9E
:104D6C007FB50369067E019103B3F9B1002500F10B
:104D7C000C04039503A901A8FFF729FF0146A8B16C
:104D8C000DF10B032046039A8DF80B50FFF7AAFF89
:104D9C009DF80B3053B11423246803FB0044B4F981
:104DAC0006300834002BA8BFDEB2E3E7304604B06F
:104DBC0070BD000010B5094C2378BFF35B8FDB0787
:104DCC0009D42046FBF772F928B12046FBF773F99A
:104DDC00034802F02FFD034810BD00BF2C16002025
:104DEC00D34B0A081400002010B5094C2378BFF3EC
:104DFC005B8FDB0709D42046FBF758F928B1204616
:104E0C00FBF759F9034802F015FD034810BD00BF2C
:104E1C0030160020374C0A081800002038B5002541
:104E2C000446C0E90055C0E904558560856140F829
:104E3C00245FFFF74FF9FFF7BDFFE061FFF7D4FFE9
:104E4C0025732062204638BD10B50A4C2378BFF379
:104E5C005B8FDB070CD42046FBF728F940B10648E2
:104E6C00FFF7DCFF2046FBF726F9044802F0E2FCD2
:104E7C00014810BD281600203816002051530A088E
:104E8C000023024A02490348FFF7E6BADD510A083B
:104E9C0069510A08E9500A0800231A4619461846AF
:104EAC00FFF7DABA37B504460D6951F8043B01A88F
:104EBC000093FFF7ECFB6A4629462046FFF714FDEA
:104ECC0001A8FFF7CEFB204603B030BD37B5044632
:104EDC008D6851F8043B01A80093FFF7D8FB6A4694
:104EEC0029462046FFF77CFD01A8FFF7BAFB2046B8
:104EFC0003B030BD37B50446CD6851F8043B01A86A
:104F0C000093FFF7C4FB6A4629462046FFF744FD91
:104F1C0001A8FFF7A6FB204603B030BD70B58AB0E0
:104F2C000D46014604A8FFF7D1FF144E04A8FFF765
:104F3C006FFDE8B1684604A9FFF7DCFF3146029823
:104F4C00FFF76CFE044610B12C1E18BF012401A8FB
:104F5C00FFF787FB002CE9D0684604A9FFF7A2FFF6
:104F6C006846FFF7F8FC286001A8FFF77AFBDDE73D
:104F7C0005A8FFF776FB0AB070BD00BF747E0A0867
:104F8C0037B50C4619492046154602F006FD48B9BE
:104F9C0001F0B0F94FF4165101F08EF901F0AAF9B5
:104FAC0003B030BD2046124902F0F7FC40B901F0C5
:104FBC00DBF94FF4165101F07FF901F0D5F9EFE769
:104FCC0020460C4902F0E9FC70B94FF4165301A9C4
:104FDC0028460193FFF7A2FF01F0F8F8019901F0C0
:104FEC00EFF801F0F3F8DBE70020D9E7797E0A0847
:104FFC00807E0A08837E0A0870B51426D0E9005317
:10500C00044606FB0356AE4205D005F10800FFF737
:10501C00F3FF1435F7E72068FFF7C2FA204670BD9E
:10502C0070B50446D0E9005305EB0316AE4204D02C
:10503C00284600F0B4FF1035F8E72068FFF7B0FA07
:10504C00204670BD10B504460C30FFF7D5FF204646
:10505C00FFF7E6FF204610BD10B50446034B40F8A1
:10506C00043BFFF7EFFF204610BD00BFC87D0A08C8
:10507C0010B50446FFF7F0FF2046242101F0E2FBB7
:10508C00204610BD10B50446024B0360FFF7E4FF49
:10509C00204610BD207F0A0810B50446FFF7F2FF2A
:1050AC002046242101F0CEFB204610BD0022C0E991
:1050BC000022826010B50C680A6004604C684A607B
:1050CC0044608C688A60846010BD10B50446036827
:1050DC001868FFF717F8204610BD00002DE9F04FB7
:1050EC0087B003931C4B80465B688946C3F3080367
:1050FC0016466BB9FFF7A8FE044600F12403406A7C
:10510C000593FEF7F7FF237B2BB105A8FFF7DDFF17
:10511C0007B0BDE8F08F01235FFA89F92373D4E956
:10512C00005305EB830AAA4512D055F8047B31468F
:10513C00381DFFF715FE8145F5D3039A3B680092A5
:10514C00D3F808B04A46334641463846D847EAE7D2
:10515C0000232373D9E700BF00ED00E02DE9F74FE2
:10516C009B461A4B80465B688946C3F30803164678
:10517C006BB9FFF769FE044600F12403406A019302
:10518C00FEF7B8FF237B2BB101A8FFF79EFF03B0FE
:10519C00BDE8F08F0123F6B22373D4E9005305EB7D
:1051AC00830A55450ED055F8047B5946381DFFF738
:1051BC00D7FD8642F5D33B684A4641463846DB6804
:1051CC009847EEE700232373DEE700BF00ED00E015
:1051DC002DE9F341164B05465B680F46C3F30803F4
:1051EC001BBBFFF731FE044600F12403406A019318
:1051FC00FEF780FFD4E90063462406EB8308B04534
:10520C0009D101A8FFF761FFA542B4BF002001201E
:10521C0002B0BDE8F08156F8040B39460430FFF7B4
:10522C009FFD8442A8BF0446E9E70020F0E700BFD9
:10523C0000ED00E00B4670B5044605C800EB820299
:10524C00824207D001461D6851F8046BAE4203D070
:10525C000846F5E7002070BD521A02F00DFB63689A
:10526C000120013B6360F6E71FB5044600F12403FF
:10527C00406A01910393FEF73DFF204601A9FFF719
:10528C00D9FF18B163680BB9FFF706FE03A8FFF747
:10529C001CFF04B010BD182370B50446D0E90456A9
:1052AC0003FB0656AE4215D0204605F11001FFF760
:1052BC00C1FF63680BB9FFF7EFFDE069296903686B
:1052CC00DB689847696919B1206A0368DB689847FD
:1052DC001835E7E71826D4E9045306FB0356AE420B
:1052EC0004D0284600F05BFE1835F8E70023636114
:1052FC0070BD73B50446FFF7CFFD04F12403606A5B
:10530C000193FEF7F7FE2046FFF7C5FF01A8FFF754
:10531C00DCFE606A08B1FEF7E5FED4E904531826FA
:10532C0006FB0356AE4204D0284600F038FE183572
:10533C00F8E72069FFF734F92068FFF731F92046C8
:10534C0002B070BD0148FFF7D4BF00BF3816002073
:10535C008842F8B506460C46154627D9904226D207
:10536C000026A2F114056C1AA1F114070444AF42F3
:10537C003DD0A4B12B682360AB88A380B5F906306F
:10538C00C4E902662661E380AB68A360AE60E368A3
:10539C00EA68E260EB6023692A6922612B6105F1FE
:1053AC000800FFF729FE143D143CE0E71FD000274E
:1053BC00AC421CD0A6B123683360A388B380B4F987
:1053CC000630C6E902773761F380A368B360A76043
:1053DC00F368E268F260E360336922693261236149
:1053EC0004F10800FFF708FE14341436E0E7F8BDAA
:1053FC00F8B5D0E901539D4204460E4617460DDB25
:10540C000135002D006804DDA900FFF7D1F818B9AB
:10541C00F8BDFFF7C5F800202060A560256862681C
:10542C0005EB86019200A2EB8602081D02F024FA1D
:10543C0045F826706368012001336360E8E737B5EF
:10544C00044600F12403406A0D460193FEF752FE18
:10545C00D4E9003103EB810083421A460AD012686A
:10546C000433AA42F8D101A8FFF72FFE00252846E5
:10547C0003B030BD2A462046FFF7BAFF0546002888
:10548C00F1D06368012B01D1FFF7FAFC01A8FFF7FB
:10549C001CFEECE78842F8B504460D46164614D9B6
:1054AC00904213D2A2F11006751AA1F110072C44E8
:1054BC00B74218D01CB13146204600F0EAFD304608
:1054CC0000F06DFD103E103CF2E70CD0B5420AD056
:1054DC001CB12946204600F0DCFD284600F05FFD9B
:1054EC0010351034F2E7F8BD70B50E1E054611DD0F
:1054FC003001FFF74DF8044658B1D5E9001201EB25
:10550C000212FFF7C7FF2868FFF74AF801202C604A
:10551C00AE6070BD0024F6E72DE9F04F91460023F4
:10552C00462297B00391D9F8041004469942C0E979
:10553C000033C0E90233C0E90433CDE90A33027603
:10554C000C9323DCD9E90057142303FB0757AF4214
:10555C003BD029460DA800F09CFD0DA911A80B9E6F
:10556C0000F097FDDDE90B1399421BDA0A9B0B9AAD
:10557C0003EB0616314603EB021206F11000FFF79F
:10558C0089FFEEB90B9B01330B9311E00AA8FFF7CF
:10559C00ABFF0028D6D10AA8FFF742FD204617B072
:1055AC00BDE8F08F01310AA8FFF79EFF0028DDD17E
:1055BC0011A800F0F4FC0DA800F0F1FC1435C6E7BE
:1055CC00304611A900F065FDDCE700264FF0140A07
:1055DC003746CDE90D660F96DDE90A239E4280F22F
:1055EC0097803301D35808930BB90136F4E70AFBC3
:1055FC0006F3099702930DAD09A908A8FFF7E7FA7E
:10560C0083460028F1D00146099A28460DF11F0364
:10561C008DF81F70FFF766FB9DF81F800190B8F1A5
:10562C00000F66D1BDF82430CDE91388ADF84830B1
:10563C004FF6FF73CDF844B0ADF84A30CDF8548036
:10564C00D5E9013293421ADB03F1010BBBF1000FD8
:10565C004ADD0AFB0BF0FEF79BFF0490002845D0B7
:10566C00D5E900120AFB0212FFF772FE049B2868B0
:10567C000493FEF795FF049BC5F808B02B60019BC3
:10568C00D5F800B00AFB03F36A680BEB030101F1D8
:10569C0014000AFB02B204910593FFF759FE04991A
:1056AC00A9B1119A059B4BF80320BDF848308B80AB
:1056BC00BDF94A30C1E902770F61CB80139B8B6037
:1056CC00149B1397CB60159B14970B6115976B6804
:1056DC0001336B6013A8FFF78FFCB8F1000F08D0F3
:1056EC000DA8FFF789FC56E74346C0E74FF00108C9
:1056FC00F0E7019B2D680AFB0355089B1B782BB91F
:10570C00D9F80030029A13441B7CEB80083573E700
:10571C002168226062686360A3680B920C9A0C93F8
:10572C00E368A2600D9A0D932369E2600E9A0E93C2
:10573C00636922610F9A0F93039B0A91626123762E
:10574C00CEE700007FB505460E460446084B1146D1
:10575C0045F8043B01A8FBF78DFC314601AA28460D
:10576C00FFF7DAFE01A8FBF767FB204604B070BD1B
:10577C00C87D0A08F0B50F4687B03846254916464D
:10578C001D460C9C02F009F900BBE4B129466846A1
:10579C00FFF78CFC2420204901F056F8054670B127
:1057AC00694603A8FBF766FC314603AA2846FFF7B7
:1057BC00C9FF03A8FBF740FB184B2C622B60684613
:1057CC00FBF73AFB2C46204607B0F0BD384614498F
:1057DC0002F0E3F8E0B9002CF5D029466846FFF753
:1057EC0065FC24200C4901F02FF805460028E6D072
:1057FC00694603A8FBF73EFC314603AA2846FFF78F
:10580C00A1FF03A8FBF718FB064B2C622B60D6E715
:10581C000024D8E78B7E0A085C800A08207F0A08DF
:10582C008F7E0A08087F0A08014B024A1A607047EB
:10583C0034160020A57D0A082DE9F047089DD0F804
:10584C00209004460E461746984600F053FD8145BD
:10585C004DD02B79190704D520466A695449FFF7B6
:10586C0031FAB8F1000F0DD05B212046FFF71EFA7C
:10587C0041462046FFF70CFA236802222046DB68DB
:10588C004C4998472B79DA0724D5D5F808802F2175
:10589C00404602F0D4F808B100F101084146204618
:1058AC00FFF7F6F92B799B0708D53A212046FFF72D
:1058BC00FDF92046EA684049FFF704FA2A79236883
:1058CC0012F0040F20464FF00202DB6814BF3B4974
:1058DC003B4998472B7958071DD529690B461A4621
:1058EC0013F8010B60B1202808D11946F7E73548A9
:1058FC0000F067F90028ACD0BDE8F0872828EED17D
:10590C002368521A2046DB689847236804222046F5
:10591C00DB682D49984700213846FEF795FD014676
:10592C002046FFF7B5F9236802222046DB6824499C
:10593C0098471EB131462046FFF7AAF92B7913F090
:10594C00300F2CD023682149DB680222204698476F
:10595C002B79D9060AD52368072220461C49DB6817
:10596C0098472046AA691B49FFF7ACF92B799A0690
:10597C0011D5DB0605D5236802222046DB680F49CA
:10598C0098472368204614490A22DB68984720462A
:10599C00E969FFF77DF95D212046FFF787F9236858
:1059AC002046BDE8F0470222DB680C49184700BFCF
:1059BC00A07E0A08A77E0A08687E0A08AA7E0A0842
:1059CC00AF7E0A0860160020AD7E0A08B27E0A0877
:1059DC00B57E0A08BD7E0A08C07E0A08CB7E0A087E
:1059EC002DE9F04385B0D0F8209005460F4690463F
:1059FC001E460C9C00F07EFC814505D1494800F008
:105A0C00E0F8002840F08A804FF000092B6A464AE3
:105A1C0001A8019203938DF80890FFF722F84946EC
:105A2C004046FEF711FD80464049012201A8FFF7D0
:105A3C00A1F84146FFF71FF93FB13D49012201A8EA
:105A4C00FFF798F83946FFF716F93EB139490122AC
:105A5C0001A8FFF78FF83146FFF70DF92379DF071F
:105A6C000ED5A6682F21304601F0E9FF00B1461C87
:105A7C003149012201A8FFF77DF83146FFF7FBF809
:105A8C0023799E0707D52D49022201A8FFF772F84A
:105A9C00E168FEF7F3FF2379580714D526693346DE
:105AAC001F4613F8012B2AB1202A01D11E46F7E715
:105ABC00282AF5D10222224901A8FFF75BF83146CA
:105ACC00BA1BFFF766F82379190707D51D49012280
